:100000000004001081080000F3060000F106000063
:100010000000000000000000000000007AF3FFEF85
:1000200000000000000000000000000000000000D0
:10003000000000000000000000000000E1030000DC
:1000400000000000000000000000000000000000B0
:1000500000000000000000000000000000000000A0
:100060000000000000000000000000000000000090
:100070000000000000000000000000000000000080
:100080000000000000000000000000000000000070
:100090000000000000000000000000000000000060
:1000A0000000000000000000000000000000000050
:1000B0000000000000000000000000000000000040
:1000C00010B5064C2378002B07D10548002802D034
:1000D000044800E000BF0121217010BD1400001091
:1000E000000000008C09000008B5084B002B03D06D
:1000F0000748084900E000BF07480168002903D00D
:10010000064A002A00D0904708BDC0460000000003
:100110008C09000018000010100000100000000002
:10012000414B80201A1DD16F4000014370B5D1674B
:100130005C683E4D3E4A25405D605E680421064392
:100140005E603C4B80261A605C68F2020C435C6087
:100150005D6839492A435A605C68C0260C437200C6
:100160001E255C60A0219D52C12200248D0007261F
:1001700051005C535E52C226720013259D522F49D6
:10018000C125AE00C0229951950001212C4EC322F9
:100190005951950059825E51C226B2009950A0264D
:1001A000284A0225F600DD829C509C519C588026EE
:1001B0000C439C50A0231A06B301D4582543D550B4
:1001C000214A802395692E02340A5D041F4E25437F
:1001D000956133681E4C1C4034601E4B35682B40C3
:1001E0001843306034681C488025AB042040184315
:1001F0000924306074603068402528433060166AF6
:10020000164B8824600133400343136255698823E9
:100210002E02340A58052043E0258D40506156597E
:100220008E43565170BDC04600800440FFFEFFFF64
:1002300080000200004000500800A80001100000EB
:10024000023000000405000000C0004000400240F1
:10025000FFC7FFFFFFF8FFFFFFFFFFF9FF00FFFFF2
:100260000D4B0E490022A0205A50C1005A505A6826
:100270000B4802435A600B4B99690A02100A9861B5
:100280008021A0231B068901585802221043585090
:100290008A2188011A507047004000500405000070
:1002A0000600060000C00040034B012801D00322D5
:1002B00000E013225A6070470040024010B5174B0F
:1002C0001878FFF7F1FF164BA021CC001859022235
:1002D0001043144918515858012420435850596864
:1002E0000420814359605C680F4994435C605868FE
:1002F000014059605C680D48204058608024A0236C
:100300001906A301C8580A4C0243CA50A2698020AA
:1003100011020B0A42041A43A26110BD4D000010E5
:100320000040005004050000FFFFFBFFFFFFFDFF42
:1003300000C00040A0231B060422C10701D588216C
:1003400000E08A2189015A50A0231B060822810758
:1003500001D5882000E08A2081015A5070470000B2
:1003600008B5094B094A18700220094B1070142176
:10037000084A19700849094B10700020087018705D
:10038000FFF7D8FF08BDC0460200001003000010B0
:1003900000000010010000103900001030000010B3
:1003A000094A0A4808B5012313700370084A09482E
:1003B0003C2103701170084B084900201870087028
:1003C000FFF7B8FF08BDC046020000100300001090
:1003D0000000001001000010390000103000001073
:1003E000A64BF7B51A68A64801321A6001780029B1
:1003F00004D00378013BDDB205703DE1A14F3A78AE
:10040000002A47D1A04CA149E08FA14B08805E682B
:100410008025AD0235435D605E688025ED02354381
:100420005D60E2875C68161C9A4A22405A605D68EB
:10043000994C2C405C60994D994B042810D81E783B
:100440000136F2B21A70022A0ED9387800280BD180
:10045000012139703878FFF783FFFFF701FF03E0D0
:100460001E70904EB04201D800230EE08E4A8018D4
:1004700080B20880062148438C4900F02BFAC4B2B0
:100480000523042C01D82C7000E02B702C78052358
:100490001E1B2E70A0252A0610796946431E98411E
:1004A000834BC870C1B21878824D834C834E0328A9
:1004B0007AD800F005FA023C4775002974D16A46E3
:1004C000D07801227E491A703B780870002B21D128
:1004D000724F7C4938787C4B042815D800F0F0F92D
:1004E00003050A0E100000200BE002220A70002112
:1004F00019700DE002270F700121F9E70322F5E7DB
:10050000012008700221F3E70A706A46D7781F704D
:100510001E232B702068002803D1FFF721FFFFF76F
:10052000CDFE6A4896210A01206032603CE0644FAB
:100530003A780132D0B23870002933D1012833D94A
:10054000022730E05E4A94461278501CC0B26246E0
:1005500001901070002925D10199132924D9032075
:1005600018703B78012B07D16A46D17839703878FA
:10057000FFF7F6FEFFF7A2FE554F00223878013054
:10058000C3B23B703978012900D93A7051482A70BA
:1005900002700020FFF7CEFE3878FFF785FE03E0FB
:1005A000002901D000271F702F78381E1CD02A7810
:1005B000002A45D02978474B0139CFB22F702A78CD
:1005C000101E02D12A701A702AE01D78002D01D168
:1005D000032000E000203C4918703A4A08781F7850
:1005E0001378384018431BE03B4D2A78002A27D067
:1005F0003A4B51001B783A4D8B4214DA394A28782D
:100600001178814202D90130287019E02F705F1CE7
:10061000324DF8B201232870184001D032480078DA
:10062000FFF788FE0CE0FFF785FE304A2878137844
:10063000834202D90130287002E028492F700F70E0
:100640002568002D09D02068013820602468002C1E
:1006500003D1FFF705FEFFF7A3FE3768002F08D18F
:100660001B4E3278002A07D037703078FFF71CFE17
:1006700002E0316801393160F7BDC0463C0000102E
:10068000400000104C000010044000504A000010D0
:1006900000400050FFFFFBFFFFFFFDFF3800001090
:1006A00031000010A8610000589EFFFFB8880000CC
:1006B0004E00001032000010440000103400001002
:1006C0004800001004000010050000105046000013
:1006D0004D0000104100001002000010300000101A
:1006E000390000100300001001000010000000108D
:1006F00070477047F8B55048504D514A0A23514F42
:100700002B704260396AC0230C02260A1D064E4C2B
:100710003543002207213D6282600160E06F402680
:100720004A4D3043E023E0675E00AA5904210A43A2
:10073000AA51A859454B0822104398518025A0265C
:100740003606AD01705901437151715901200A43B8
:100750007251FFF7EFFDE26F8023D8021043E0678C
:10076000E16F802211433A488E23E1679B00C15814
:10077000EF220A4037490A43C250E06F80231A0330
:100780000243E267344C1820216910238143194346
:100790002161725996219A437251304E304D314B3E
:1007A0002E600801254A294E18601478032CFCD8C5
:1007B0002D4D2878FFF7D4FD2C4B2D4819682D4A74
:1007C000084018601C6880214800224002431A60DB
:1007D0001C68294A3D212240E0201A6044005960EB
:1007E000325901218A433251C046C046C046C046F4
:1007F0001B68990209D52878002806D102242C709C
:100800002878FFF7ADFDFFF72BFDE0225300F058ED
:1008100001210843F0502E78002E03D1FFF780FC11
:10082000FFF74CFD3D690224144B254300223D6136
:100830001A6030BFF6E7C04610E000E0400000104C
:10084000BF27090000ED00E00480044000C0004024
:1008500000800440106D000000400440504600003D
:1008600044000010340000104C0000100040024012
:10087000FFC7FFFFFFF8FFFFFFFFFFF90000024087
:1008800008B50023094A0A499818884204D2094940
:10089000CA5804330260F5E7074B084A934202D274
:1008A000002001C3F9E7FFF725FFC0460000001054
:1008B00014000010900900001400001050000010F7
:1008C00002B4714649084900095C49008E4402BCE3
:1008D0007047C046002934D00123002210B488425A
:1008E0002CD301242407A14204D2814202D209015F
:1008F0001B01F8E7E400A14204D2814202D2490080
:100900005B00F8E7884201D3401A1A434C08A04222
:1009100002D3001B5C0822438C08A04202D3001BB8
:100920009C082243CC08A04202D3001BDC082243CF
:10093000002803D01B0901D00909E3E7101C10BCF3
:100940007047002801D00020C04307B4024802A12C
:100950004018029003BDC046190000000029F0D0E5
:1009600003B5FFF7B9FF0EBC4243891A1847C046CA
:100970007047C046F8B5C046F8BC08BC9E467047F4
:10098000F8B5C046F8BC08BC9E46704700000000A1
:100990000A02030201020000E9000000C100000099
:0409A0000000000053
:040000030000088170
:00000001FF
