:10000000000400107D070000170600001506000020
:100010000000000000000000000000007EF4FFEF80
:1000200000000000000000000000000000000000D0
:100030000000000000000000000000007D03000040
:1000400000000000000000000000000000000000B0
:1000500000000000000000000000000000000000A0
:100060000000000000000000000000000000000090
:100070000000000000000000000000000000000080
:100080000000000000000000000000000000000070
:100090000000000000000000000000000000000060
:1000A0000000000000000000000000000000000050
:1000B0000000000000000000000000000000000040
:1000C00010B5064C2378002B07D10548002802D034
:1000D000044800E000BF0121217010BD1400001091
:1000E000000000008808000008B5084B002B03D072
:1000F0000748084900E000BF07480168002903D00D
:10010000064A002A00D0904708BDC0460000000003
:100110008808000018000010100000100000000007
:1001200010B5124B12481A78012A01D0032100E0C1
:100130001321104BA0244160E100585802221043C3
:1001400058500D49012458582043585059680420EC
:10015000814359605C68094894435C605968084A67
:10016000084058605C6822405A6010BD3B00001097
:10017000004002400040005004050000FFFFFBFF6C
:10018000FFFFFDFF414B80201A1DD16F400001434E
:1001900070B5D1675C683E4D3E4A25405D605E6843
:1001A000042106435E603C4B80261A605C68F202C4
:1001B0000C435C605D6839492A435A605C68C0261C
:1001C0000C4372001E255C60A0219D52C1220024B8
:1001D0008D00072651005C535E52C2267200132523
:1001E0009D522F49C125AE00C02299519500012191
:1001F0002C4EC3225951950059825E51C226B2003D
:100200009950A026284A0225F600DD829C509C5178
:100210009C5880260C439C50A0231A06B301D45846
:100220002543D550214A802395692E02340A5D0466
:100230001F4E2543956133681E4C1C4034601E4B95
:1002400035682B401843306034681C488025AB0467
:1002500020401843092430607460306840252843EA
:100260003060166A164B88246001334003431362E2
:10027000556988232E02340A58052043E0258D4015
:10028000506156598E43565170BDC046008004409F
:10029000FFFEFFFF80000200004000500800A800A1
:1002A00001100000023000000405000000C0004002
:1002B00000400240FFC7FFFFFFF8FFFFFFFFFFF90D
:1002C000FF00FFFFA0231B060422C10701D58821E0
:1002D00000E08A2189015A50A0231B0608228107C9
:1002E00001D5882000E08A2081015A507047000023
:1002F00008B5094B094A18700220094B10701421E7
:10030000084A19700849094B1070002008701870CD
:10031000FFF7D8FF08BDC046020000100300001020
:100320000500001004000010320000103C00001016
:1003300008B50E4B18701878FFF7DAFF0C480D4916
:100340000022A0234250D900425042680A4B80212B
:100350001A434260A0200306890158580222104324
:1003600058508A2188011A5008BDC0463D0000102F
:10037000004000500405000006000600F8B58A4B56
:100380008A481A6801321A600178002904D0057879
:10039000013DEEB2067006E1854D2A78002A43D170
:1003A000844C8549E08F854B08805F688026B602C3
:1003B0003E435E605F688026F6023E435E60E287F1
:1003C0005C68171C7E4A22405A605E687D4C34404F
:1003D0005C607D4E7D4B04280CD81F780137FAB243
:1003E0001A70022A0AD92878002807D10120FFF7BD
:1003F0009FFF03E01F70764FB84201D800230EE044
:10040000744A801880B2088006214843724900F07F
:10041000DFF9C4B20523042C01D8347000E0337036
:1004200031780524631A3370A026370639796B4C6E
:100430004B1E99416A4BCAB21878032869D800F05C
:10044000BDF9022C3764002A63D10126654A1E706B
:100450002B781170002B5CD15B48634F0078634DA3
:10046000042815D800F0AAF903050A0E100000268A
:100470000BE00221397000232B700BE002223A704E
:100480000123F9E70321F5E701263E700223F3E794
:100490003E7029701E2020703BE0524807780137DB
:1004A000FDB20570002A32D1012D32D902272FE08A
:1004B0004C4E30780130C7B23770002A27D1132F45
:1004C00027D903221A702B78012B05D1297028789F
:1004D000FFF70EFFFFF724FE454D00272978013175
:1004E000CEB22E702878012800D92F70414A002002
:1004F00027701770FFF7E6FE29783F4B012901D0DE
:10050000032600E013265E6003E0002A01D00027E6
:100510001F702578281E1CD02778002F43D0217803
:10052000344E0139CAB222702578281E02D12570B6
:10053000357029E03078002801D1032400E0002440
:100540002A4B34702849187837780A783840104395
:100550001AE02A4C2178002925D0294E4A00337808
:10056000284F934213DA28483A780478944202D903
:1005700001323A7017E03D705D1CE8B23070012620
:10058000304001D0214B1878FFF79CFE0BE0FFF7BD
:1005900099FE1F4C38782178814202D90130387099
:1005A00001E03D703570F8BD3400001033000010DC
:1005B0003D000010044000503E000010004000507C
:1005C000FFFFFBFFFFFFFDFF3A00001039000010A6
:1005D000A8610000589EFFFFB8880000300000109E
:1005E0003100001040000010010000100000001059
:1005F0003B000010380000100040024002000010D4
:100600003C00001032000010030000100400001035
:100610000500001070477047F8B54948494D4A4AEF
:100620000A234A4F2B704260396AC0230C02260A03
:100630001D06474C3543002207213D628260016060
:10064000E06F4026434D3043E023E0675E00AA5947
:1006500004210A43AA51A8593E4B0822104398513D
:100660008025A0263606AD0170590143715171599C
:1006700001200A437251FFF725FEE26F8023D80262
:100680001043E067E16F8022114333488E23E16716
:100690009B00C158EF220A4030490A43C250E06F24
:1006A00080231A030243E2672D4C1820216910238E
:1006B0008143194321617259264C9A437251214E4C
:1006C0003578032DFCD8274D2878FFF711FE264BEF
:1006D00026481968264A084018601E68802148008C
:1006E000324002431A601E68224A3D213240E02017
:1006F0001A6046005960A25901218A43A251C0469E
:10070000C046C046C0461B68990205D52878002817
:1007100002D10220FFF70CFEA15901221143A15181
:100720002C78002C03D1FFF72DFDFFF7F9FC3D6974
:10073000022311481D4300263D61066030BFF6E7E5
:1007400010E000E033000010BF27090000ED00E0DA
:100750000480044000C0004000800440106D000090
:10076000004004403D00001000400240FFC7FFFF72
:10077000FFF8FFFFFFFFFFF90000024008B500236C
:10078000094A0A499818884204D20949CA580433C8
:100790000260F5E7074B084A934202D2002001C3EA
:1007A000F9E7FFF739FFC046000000101400001001
:1007B0008C080000140000104400001002B47146C0
:1007C00049084900095C49008E4402BC7047C04694
:1007D000002934D00123002210B488422CD30124F4
:1007E0002407A14204D2814202D209011B01F8E789
:1007F000E400A14204D2814202D249005B00F8E742
:10080000884201D3401A1A434C08A04202D3001B6D
:100810005C0822438C08A04202D3001B9C082243A0
:10082000CC08A04202D3001BDC082243002803D0DE
:100830001B0901D00909E3E7101C10BC7047002810
:1008400001D00020C04307B4024802A14018029022
:1008500003BDC046190000000029F0D003B5FFF722
:10086000B9FF0EBC4243891A1847C0467047C046BC
:10087000F8B5C046F8BC08BC9E467047F8B5C046FF
:0C088000F8BC08BC9E4670470000000059
:10088C0002010302020A0000E9000000C10000009E
:04089C000000000058
:040000030000077D75
:00000001FF
